S010000070776D5F746573742E73726563A1
S11300000C942A000C9434000C9434000C943400A6
S11300100C9434000C9434000C9434000C9434008C
S11300200C9434000C9434000C9434000C9434007C
S11300300C9434000C9434000C9434000C9434006C
S11300400C9434000C9434000C9434000C9434005C
S11300500C94340011241FBECFE5D4E0DEBFCDBF25
S11300600E9444000C9461000C94000083B78D66D8
S113007083BFBB9A8FB5816A8FBD8EB58D608EBDEF
S113008081B3806381BB08950E9436009DE086E0C1
S11300909CBF9ABD98BD2FEF37EA41E6215030400E
S11300A04040E1F700C000008CBF8ABD88BD2FEF3F
S11300B037EA41E6215030404040E1F700C00000FB
S10900C0E7CFF894FFCF26
S9030000FC
