S013000073656E736F72656E6865742E7372656363
S11300000C9432000C944F000C944F000C94760026
S11300100C944F000C944F000C944F000C944F0020
S11300200C944F000C944F000C9404010C944F005A
S11300300C944F000C944F000C9466010C944F00E8
S11300400C944F000C944F000C944F000C944F00F0
S11300500C944F003201350138013B013E0141014E
S11300604901440111241FBECFE5D4E0DEBFCDBF5A
S113007010E0A0E6B0E0E6ECF3E002C005900D92DB
S1130080A236B107D9F720E0A2E6B0E001C01D9284
S1130090AB37B207E1F70E94B6000C94E1010C946F
S11300A000003E9A86B18E6886B9089597B1987F0C
S11300B097B98170982B97B9369A089582E690E0A3
S11300C0089582E081BB919884E0809362008093DC
S11300D06300809364008093650085B5886085BD66
S11300E089B7806889BF8AE383BD08951F920F9200
S11300F00FB60F9211248F939F9380916600909175
S11301006700019690936700809366009F918F919A
S11301100F900FBE0F901F901895089580916A005C
S1130120089510926B0010926A0008952FEF89E6EB
S113013098E1215080409040E1F700C00000809198
S1130140680090916900992790936D0080936C00EA
S1130150089587B38F6087BB88B3807F88BB0E9474
S113016051000E9461000E94960008950E94A90017
S11301700E94C300789480E00E94560082E08A9531
S1130180F1F700C0FBCFBE9A81EC8DB908958FB909
S1130190779BFECF8FB1089580E00E94C700089539
S11301A00F931F93CF93DF9384E00E94C70084E0F2
S11301B00E94C7000E945E008C01C0E0D0E0F801FC
S11301C081918F010E94C7002196C430D105B9F7EF
S11301D0DF91CF911F910F910895CF9383E00E94F7
S11301E0C70082E00E94C700C09170008091710036
S11301F00E94C7008C2F0E94C700CF9108950E94CF
S11302008E000E94C70008951F920F920FB60F929E
S113021011242F933F934F935F936F937F938F9307
S11302209F93AF93BF93CF93EF93FF93CFB10E946C
S1130230CC0021E030E030936F0020936E008C2FCF
S11302408295869586958370823019F58C2F8F73ED
S113025090E0FC013197E830F105D8F4E65DFF4FFA
S11302600C94DB010E94910014C00E94FF0011C095
S11302700E945C010EC00E9461010BC00E94D0006C
S113028008C00E94ED0005C00E94CC00F8940E94B2
S11302908D007894FF91EF91CF91BF91AF919F9191
S11302A08F917F916F915F914F913F912F910F901B
S11302B00FBE0F901F90189510927800109277003F
S11302C00895109276001092750008951F920F926F
S11302D00FB60F9211242F933F934F935F936F9315
S11302E07F938F939F93AF93BF93EF93FF938091EB
S11302F0790090917A000097E9F544B155B1609185
S1130300740081E090E02091600030916100241736
S1130310350714F080E090E0062E02C0880F991F84
S11303200A94E2F72091720030917300822B932B90
S1130330909373008093720021E0260F2093740041
S1130340293021F48AE0809374000CC02B3051F4DE
S11303509093710080937000109273001092720059
S11303601092740088B3909174009F70807F892BE1
S113037088BB0CC0019751F484B195B19093690086
S11303808093680010927A0010927900809179002D
S11303900E945600FF91EF91BF91AF919F918F9171
S11303A07F916F915F914F913F912F910F900FBE6D
S11303B00F901F901895EE0FFF1F0590F491E02DFC
S10903C00994F894FFCF3C
S10503C6000130
S9030000FC
