S013000073656E736F72656E6865742E7372656363
S11300000C942A000C943C000C943C000C943C008E
S11300100C943C000C943C000C943C000C943C006C
S11300200C943C000C943C000C9461000C943C0037
S11300300C943C000C943C000C943C000C943C004C
S11300400C943C000C943C000C943C000C943C003C
S11300500C943C0011241FBECFE5D4E0DEBFCDBF1D
S113006020E0A0E6B0E001C01D92A636B207E1F799
S11300700E9459000C9492000C94000080E487BB09
S113008080EC8DB90895E2E6F0E086E690E02191F7
S11300902FB9779BFECFE817F907C9F7089581E8D0
S11300A08093620080936300809364008093650072
S11300B008950E943E000E944F0084E08FB9789416
S11300C0FFCF1F920F920FB60F9211242F933F93DD
S11300D04F935F936F937F938F939F93AF93BF934C
S11300E0EF93FF93F8948FB1813019F0853031F09C
S11300F007C0109261001092600002C00E94430089
S11301007894FF91EF91BF91AF919F918F917F91DF
S11301106F915F914F913F912F910F900FBE0F9070
S10B01201F901895F894FFCF1D
S9030000FC
