S013000073656E736F72656E6865742E7372656363
S11300000C942A000C943C000C943C000C94640066
S11300100C943C000C943C000C943C000C943C006C
S11300200C943C000C943C000C94A9000C943C00EF
S11300300C943C000C943C000C943C000C943C004C
S11300400C943C000C943C000C943C000C943C003C
S11300500C943C0011241FBECFE5D4E0DEBFCDBF1D
S113006020E0A0E6B0E001C01D92AA36B207E1F795
S11300700E9483000C94F7000C94000087B1806602
S113008087B986B1866886B9089597B1987F97B97C
S11300908170982B97B9369A3699FECF85B1089519
S11300A082E081BB919810926000109261001092DE
S11300B062001092630085B5886085BD89B7806849
S11300C089BF8AE383BD08951F920F920FB60F92E2
S11300D011248F939F938091640090916500019601
S11300E090936500809364009F918F910F900FBE51
S11300F00F901F90189587B38F6087BB0E945000A4
S11301000E943E0008950E947B000E948C00789417
S113011080E00E944500FCCF80E487BB80EC8DB971
S113012008958FB9779BFECF089580E00E949100D7
S113013080E00E94910080E00E94910080E00E9493
S113014091000895F8940E94EC000E949100789424
S113015008951F920F920FB60F9211242F933F937D
S11301604F935F936F937F938F939F93AF93BF93BB
S1130170EF93FF93F8942FB181E090E0909369009E
S113018080936800822F829586958695837082304D
S113019089F42F73253049F0263051F0213051F481
S11301A0109267001092660005C00E94950002C07C
S11301B00E94A2007894FF91EF91BF91AF919F911B
S11301C08F917F916F915F914F913F912F910F90FC
S11301D00FBE0F901F90189588B3807F88BBC09A7C
S11301E080E00E94450098B3907F98BB0895F894EE
S10501F0FFCF3B
S9030000FC
