S013000073656E736F72656E6865742E7372656363
S11300000C942A000C943C000C943C000C943C008E
S11300100C943C000C943C000C943C000C943C006C
S11300200C943C000C943C000C943C000C943C005C
S11300300C943C000C943C000C943C000C943C004C
S11300400C943C000C943C000C943C000C943C003C
S11300500C943C0011241FBECFE5D4E0DEBFCDBF1D
S113006020E0A0E6B0E001C01D92A436B207E1F79B
S11300700E945E000C9465000C94000080E487BB31
S11300808DB9089584E08FB9779BFECFE0E6F0E068
S113009084E690E021912FB9779BFECFE817F9070A
S11300A0C9F708951092600081E08093610082E0B6
S11300B08093620083E08093630008950E943E0071
S11100C00E9452000E944200FDCFF894FFCF30
S9030000FC
