S013000073656E736F72656E6865742E7372656363
S11300000C942A000C9447000C9447000C94710043
S11300100C9447000C9447000C9447000C94470040
S11300200C9447000C9447000C9402010C94470074
S11300300C9447000C9447000C9460010C94470006
S11300400C9447000C9447000C9447000C94470010
S11300500C94470011241FBECFE5D4E0DEBFCDBF12
S113006010E0A0E6B0E0E2E6F3E002C005900D92F5
S1130070A036B107D9F720E0A0E6B0E001C01D9298
S1130080A737B207E1F70E94B8000C94AF010C94B3
S1130090000087B1806687B986B18E6886B90895F5
S11300A097B1987F97B98170982B97B9369A08952C
S11300B080E690E0089582E081BB919884E080938B
S11300C0600080936100809362008093630085B533
S11300D0886085BD89B7806889BF8AE383BDD09A6B
S11300E008951F920F920FB60F9211248F939F932E
S11300F080916400909165000196909365008093CF
S11301006400D89A8AE18A95F1F700C0D8989F9143
S11301108F910F900FBE0F901F90189581E00E9451
S1130120500008958091660008951092670010921F
S1130130660008952FEF89E698E1215080409040B1
S1130140E1F700C000000E948E0090E090936900E7
S113015080936800089587B38F6087BB88B3807FDE
S113016088BB0E9449000E945B000E949A00089587
S11301700E94AB000E94C70078942FEF86E791E0BD
S1130180215080409040E1F700C00000F6CFBE9AB5
S113019081EC8DB908958FB9779BFECF8FB1089507
S11301A080E00E94CB0008950F931F93CF93DF93B9
S11301B00E9458008C01C0E0D0E0F80181918F01C9
S11301C00E94CB002196C430D105B9F7DF91CF91BD
S11301D01F910F910895CF9383E00E94CB0082E09A
S11301E00E94CB00C0916C0080916D000E94CB00F6
S11301F08C2F0E94CB00CF9108950E9492000E9400
S1130200CB0008951F920F920FB60F9211242F93D3
S11302103F934F935F936F937F938F939F93AF938A
S1130220BF93CF93EF93FF93CFB10E94D00081E0AF
S113023090E090936B0080936A008C2F8295869552
S113024086958370823001F5CF73C33091F028F422
S1130250C13049F0C23051F017C0C53081F060F0B0
S1130260C63081F011C00E9495000EC00E94FD00AE
S11302700BC00E94560108C00E945B0105C00E9489
S1130280D40002C00E94EB00FF91EF91CF91BF9187
S1130290AF919F918F917F916F915F914F913F911A
S11302A02F910F900FBE0F901F901895109272000F
S11302B01092710008951092700010926F000895CA
S11302C01F920F920FB60F9211242F933F934F93C7
S11302D05F936F937F938F939F93AF93BF93EF93AA
S11302E0FF9380917300909174000097B9F481E0BA
S11302F080936E0084B195B190936D0080936C00EF
S113030080916E008B3011F410926E0088B390913E
S11303106E009F70807F892B88BB0CC0019751F4BD
S113032084B195B190937600809375001092740017
S113033010927300809173000E945000FF91EF911E
S1130340BF91AF919F918F917F916F915F914F91E9
S11303503F912F910F900FBE0F901F901895F89416
S1050360FFCFC9
S9030000FC
