S013000073656E736F72656E6865742E7372656363
S11300000C942A000C9447000C9447000C940501AE
S11300100C9447000C9447000C9447000C94470040
S11300200C9447000C9447000C9460010C94470016
S11300300C9447000C9447000C9447000C94470020
S11300400C9447000C9447000C9447000C94470010
S11300500C94470011241FBECFE5D4E0DEBFCDBF12
S113006010E0A0E6B0E0EEE5F3E002C005900D92EA
S1130070A036B107D9F720E0A0E6B0E001C01D9298
S1130080AC36B207E1F70E942A010C94AD010C943E
S1130090000087B1806687B986B1866886B90895FD
S11300A097B1987F97B98170982B97B9369A3699FA
S11300B0FECF85B10895FF920F931F93CF93DF93E3
S11300C07894D0E010E000E0F12C109267001092D8
S11300D06600109265001092640014BC919A8AE143
S11300E08A95F1F700C09198839BFECF849BFCCF47
S11300F0859BFACF829BF8CF85B5826085BD63E688
S113010070E0E6E6F0E0C1E042E650E021E630E0EF
S113011052C08091640090916500892B09F04BC016
S1130120829913C0D11111C085B58D7F85BD8081A1
S1130130A0E6B0E08C9385B5826085BDDC2F80910C
S1130140640090916500892BB1F5839912C0111157
S113015010C085B58D7F85BD8081D9018C9385B50F
S1130160826085BD1C2F8091640090916500892B6D
S113017011F5849912C0011110C085B58D7F85BD1C
S11301808081DA018C9385B5826085BD0C2F8091C6
S1130190640090916500892B71F485990CC0F1106D
S11301A00AC085B58D7F85BD8081DB018C93FC2ED3
S11301B085B5826085BD8299ACCF8399AACF849995
S11301C0A8CF8599A6CF85B58D7F85BDDF91CF91C9
S11301D01F910F91FF90089580E690E0089582E0CA
S11301E081BB919884E08093600080936100809348
S11301F062008093630085B5886085BD89B7806897
S113020089BF8AE383BDD09A08951F920F920FB6D7
S11302100F9211248F939F938091660090916700B1
S113022001969093670080936600D89A8AE18A9534
S1130230F1F700C0D8989F918F910F900FBE0F9047
S11302401F90189587B38F6087BB0E94EF000E94B0
S1130250490008950E9422010E943B0178942FEFE7
S113026086E791E0215080409040E1F700C0000013
S11302700E945B00F4CF80E487BB80EC8DB90895C5
S11302808FB9779BFECF08950F931F93CF93DF937E
S11302900E94EC008C01C0E0D0E0F80181918F0154
S11302A00E9440012196C430D105B9F7DF91CF9166
S11302B01F910F9108950E94A2010E944001089588
S11302C01F920F920FB60F9211242F933F934F93C7
S11302D05F936F937F938F939F93AF93BF93EF93AA
S11302E0FF932FB181E090E090936B0080936A00BC
S11302F0822F8295869586958370823089F42F7338
S1130300253049F0263051F0213051F41092690023
S11303101092680005C00E94440102C00E945B0163
S11303207894FF91EF91BF91AF919F918F917F91BD
S11303306F915F914F913F912F910F900FBE0F904E
S11303401F90189588B3807F88BBC09A80E00E9474
S1110350500098B3907F98BB0895F894FFCFA7
S9030000FC
