S013000053656E736F72656E6865742E7372656383
S11300000C942A000C9447000C9447000C94700044
S11300100C9447000C9447000C9447000C94470040
S11300200C9447000C9447000C94FC000C9447007B
S11300300C9447000C9447000C948D010C944700D9
S11300400C9447000C9447000C9447000C94470010
S11300500C94470011241FBECFE5D4E0DEBFCDBF12
S113006010E0A0E6B0E0E0ECF3E002C005900D92F1
S1130070A036B107D9F720E0A0E6B0E001C01D9298
S1130080A537B207E1F70E94AA000C94DE010C9494
S113009000003E9A86B1866886B9089597B1987F24
S11300A097B98170982B97B9369A3699FECF0895EF
S11300B080E690E0089582E081BB919884E080938B
S11300C0600080936100809362008093630085B533
S11300D0886085BD89B7806889BF8AE383BD089538
S11300E01F920F920FB60F9211248F939F938091BA
S11300F0640090916500019690936500809364007C
S11301008AE18A95F1F700C09F918F910F900FBEFD
S11301100F901F90189580916600089510926700C3
S11301201092660008952FEF89E698E121508040EF
S11301309040E1F700C00000089587B38F6087BB4B
S113014088B3807F88BB0E9449000E945B000E94A4
S1130150930008950E949D000E94BB00789480E063
S11301600E944E008FE697E10197F1F700C000006E
S11301700E945A01F4CFBE9A81EC8DB908958FB9CB
S1130180779BFECF8FB1089580E00E94BF00089551
S11301900F931F93CF93DF9384E00E94BF0084E00A
S11301A00E94BF000E9458008C01C0E0D0E0F8011A
S11301B081918F010E94BF002196C430D105B9F707
S11301C0DF91CF911F910F910895CF9383E00E9407
S11301D0BF0082E00E94BF00C0916A0080916B0062
S11301E00E94BF008C2F0E94BF00CF9108950E94EF
S11301F08B000E94BF0008951F920F920FB60F92BA
S113020011242F933F934F935F936F937F938F9317
S11302109F93AF93BF93CF93EF93FF93CFB10E947C
S1130220C40081E090E090936900809368008C2F73
S11302308295869586958370823001F5CF73C3309D
S113024091F028F4C13049F0C23051F017C0C530E4
S113025081F060F0C63081F011C00E948E000EC0A3
S11302600E94F7000BC00E94500108C00E94550173
S113027005C00E94C80002C00E94E500FF91EF91F2
S1130280CF91BF91AF919F918F917F916F915F912A
S11302904F913F912F910F900FBE0F901F90189583
S11302A01092700010926F00089510926E001092D8
S11302B06D0008958091710090917200009701F58E
S11302C080916C008F5F80936C0084B195B19093A2
S11302D06B0080936A0080916C00893019F48AE085
S11302E080936C0080916C008B3011F410926C0040
S11302F088B390916C009F70807F892B88BB089590
S1130300019751F484B195B1909374008093730074
S1130310109272001092710008951F920F920FB6FE
S11303200F9211242F933F934F935F936F937F9377
S11303308F939F93AF93BF93EF93FF93809171003B
S1130340909172000097C9F480916C008F5F809344
S11303506C0084B195B190936B0080936A00809196
S11303606C008B3011F410926C0088B390916C0087
S11303709F70807F892B88BB0CC0019751F484B196
S113038095B1909374008093730010927200109250
S11303907100809171000E944E00FF91EF91BF9116
S11303A0AF919F918F917F916F915F914F913F9109
S11303B02F910F900FBE0F901F901895F894FFCFB8
S9030000FC
