S013000053656E736F72656E6865742E7372656383
S11300000C9432000C944F000C944F000C94760026
S11300100C944F000C944F000C944F000C944F0020
S11300200C944F000C944F000C9416010C944F0048
S11300300C944F000C944F000C9480010C944F00CE
S11300400C944F000C944F000C944F000C944F00F0
S11300500C944F00440147014A014D0150015301E2
S11300605B01560111241FBECFE5D4E0DEBFCDBF36
S113007010E0A0E6B0E0E4E1F4E002C005900D92E7
S1130080A236B107D9F720E0A2E6B0E001C01D9284
S1130090A937B207E1F70E94C8000C9408020C9437
S11300A000003E9A86B18E6886B9089597B1987F0C
S11300B097B98170982B97B9369A089582E690E0A3
S11300C0089582E081BB919884E0809362008093DC
S11300D06300809364008093650085B5886085BD66
S11300E089B7806889BF8AE383BD08951F920F9200
S11300F00FB60F9211248F939F9380916600909175
S11301006700019690936700809366009F918F919A
S11301100F900FBE0F901F9018958FE19EE40197EA
S1130120F1F700C0000080E00895CF93DF931092B0
S11301306B0010926A00C82FD0E00E948D002091BD
S11301406A0030916B00C217D307BCF7DF91CF91DF
S1130150089580916A00089510926B0010926A00CD
S113016008952FEF89E698E1215080409040E1F70F
S113017000C00000089587B38F6087BB88B3807F79
S113018088BB0E9451000E9461000E94B100089542
S11301900E94BB000E94D500789480E00E94560023
S11301A082E08A95F1F700C0FBCFBE9A81EC8DB94D
S11301B008958FB9779BFECF8FB1089580E00E9498
S11301C0D90008950F931F93CF93DF9384E00E9487
S11301D0D90084E00E94D9000E945E008C01C0E036
S11301E0D0E0F80181918F010E94D9002196C4309A
S11301F0D105B9F7DF91CF911F910F910895CF9356
S113020083E00E94D90082E00E94D900C0916E0070
S113021080916F000E94D9008C2F0E94D900CF9149
S113022008950E94A9000E94D90008951F920F9278
S11302300FB60F9211242F933F934F935F936F93B5
S11302407F938F939F93AF93BF93CF93EF93FF933A
S1130250CFB10E94DE0021E030E030936D002093A6
S11302606C008C2F8295869586958370823019F563
S11302708C2F8F7390E0FC013197E830F105D8F4AE
S1130280E65DFF4F0C9402020E94AC0014C00E9471
S1130290110111C00E946E010EC00E9477010BC0B3
S11302A00E94E20008C00E94FF0005C00E94DE0018
S11302B0F8940E9495007894FF91EF91CF91BF91AB
S11302C0AF919F918F917F916F915F914F913F91EA
S11302D02F910F900FBE0F901F9018958091700072
S11302E090917100909376008093750008958091A9
S11302F0700090917100909374008093730008953E
S11303001F920F920FB60F9211242F933F934F9386
S11303105F936F937F938F939F93AF93BF93EF9369
S1130320FF938091770090917800009709F049C07D
S113033044B155B16091720081E090E02091600079
S1130340309161002417350714F080E090E0062E08
S113035002C0880F991F0A94E2F72091700030912F
S11303607100822B932B909371008093700021E095
S1130370260F20937200293021F48AE080937200C2
S113038018C02B30B1F49C0122273570211535405B
S113039029F090936F0080936E0005C09260909353
S11303A06F0080936E001092710010927000109292
S11303B0720088B3909172009F70807F892B88BBF4
S11303C00CC0019751F484B195B190936900809366
S11303D068001092780010927700809177000E9454
S11303E05600FF91EF91BF91AF919F918F917F91B3
S11303F06F915F914F913F912F910F900FBE0F908E
S11304001F901895EE0FFF1F0590F491E02D0994AD
S1070410F894FFCF8A
S10504140001E1
S9030000FC
