S013000073656E736F72656E6865742E7372656363
S11300000C942A000C943C000C943C000C94B70013
S11300100C943C000C943C000C943C000C943C006C
S11300200C943C000C943C000C94FB000C943C009D
S11300300C943C000C943C000C943C000C943C004C
S11300400C943C000C943C000C943C000C943C003C
S11300500C943C0011241FBECFE5D4E0DEBFCDBF1D
S113006020E0A0E6B0E001C01D92AC36B207E1F793
S11300700E94D4000C943A010C940000EF92FF9279
S11300800F931F93CF93DF9360E070E010E000E0E4
S1130090109267001092660010926500109264003E
S11300A014BC919A8AE18A95F1F700C09198829BD9
S11300B0FECF85B5826085BD809164009091650016
S11300C05091660023E630E041E0C2E6D0E0A1E6CC
S11300D0B0E00F2EF0E6EF2EF0E0FF2EF02D19C069
S11300E00097B9F4829921C061111FC0F7015083B0
S11300F0642F1BC071111BC05C93742F18C01111A5
S113010018C05883142F15C0011103C0F90150837E
S1130110042F8299E5CF8399E3CF8499E1CF859920
S1130120DFCF85B58D7F85BD07C0839BE3CF859BDE
S1130130E6CF859BE9CFEDCFDF91CF911F910F9152
S1130140FF90EF90089582E081BB91981092600037
S113015010926100109262001092630085B588606D
S113016085BD89B7806889BF8AE383BD08951F92DE
S11301700F920FB60F9211248F939F938091660074
S113018090916700019690936700809366009F9119
S11301908F910F900FBE0F901F90189587B38F60AB
S11301A087BB0E94A30008950E94CE000E94E50030
S11301B078942FEF89E698E1215080409040E1F750
S11301C000C000000E943E00F4CF80E487BB80ECB6
S11301D08DB908958FB9779BFECF089580E00E9472
S11301E0EA0080E00E94EA0080E00E94EA0080E0E9
S11301F00E94EA0008951F920F920FB60F921124E5
S11302002F933F934F935F936F937F938F939F931A
S1130210AF93BF93EF93FF93F8942FB181E090E0F5
S113022090936B0080936A00822F829586958695C1
S11302308370823069F42F73213019F0253031F046
S113024007C0109269001092680002C00E94EE007C
S11302507894FF91EF91BF91AF919F918F917F918E
S11302606F915F914F913F912F910F900FBE0F901F
S10B02701F901895F894FFCFCC
S9030000FC
