S013000073656E736F72656E6865742E7372656363
S11300000C942A000C943C000C943C000C943E008C
S11300100C943C000C943C000C943C000C943C006C
S11300200C943C000C943C000C94BC000C943C00DC
S11300300C943C000C943C000C943C000C943C004C
S11300400C943C000C943C000C943C000C943C003C
S11300500C943C0011241FBECFE5D4E0DEBFCDBF1D
S113006020E0A0E6B0E001C01D92AC36B207E1F793
S11300700E94A6000C94F3000C9400001F920F92AF
S11300800FB60F9211248F939F93809160009091EB
S113009061000196909361008093600083E08A95EB
S11300A0F1F700009F918F910F900FBE0F901F905A
S11300B0189580E487BB80EC8DB908951092650093
S11300C010926400109263001092620014BC929A21
S11300D08AE18A95F1F700C09298819BFECF85B59D
S11300E0826085BD8199FECF85B58D7F85BD809168
S11300F0620090916300892B21F4809164008093C5
S113010068000895E8E6F0E08CE690E021912FB9CC
S1130110779BFECFE817F907C9F7089581E8809324
S113012068008093690080936A0080936B0087B3B2
S11301308F6087BB84E081BB089585B5886085BDE9
S113014089B7806889BF8AE383BD08950E949D00B2
S11301500E9459000E948E00B89A84E08FB9789466
S11301600E945E002FEF89E698E121508040904084
S1130170E1F700C00000F4CF1F920F920FB60F9268
S113018011242F933F934F935F936F937F938F9398
S11301909F93AF93BF93EF93FF93F89481E090E024
S11301A090936300809362008FB1813019F08530A1
S11301B031F007C0109267001092660002C00E94DE
S11301C082007894FF91EF91BF91AF919F918F91AD
S11301D07F916F915F914F913F912F910F900FBE3F
S10D01E00F901F901895F894FFCFBC
S9030000FC
