S013000073656E736F72656E6865742E7372656363
S11300000C942A000C943C000C943C000C943C008E
S11300100C943C000C943C000C943C000C943C006C
S11300200C943C000C943C000C9465000C943C0033
S11300300C943C000C943C000C943C000C943C004C
S11300400C943C000C943C000C943C000C943C003C
S11300500C943C0011241FBECFE5D4E0DEBFCDBF1D
S113006020E0A0E6B0E001C01D92A436B207E1F79B
S11300700E945D000C948C000C94000080E487BB0B
S113008080EC8DB9089584E08FB9779BFECFE0E6CC
S1130090F0E084E690E021912FB9779BFECFE8173A
S11300A0F907C9F7089581E880936000809361009F
S11300B0809362008093630008950E943E000E9432
S11300C0530084E08FB97894FFCF1F920F920FB63C
S11300D00F9211242F933F934F935F936F937F93CA
S11300E08F939F93AF93BF93EF93FF93F8940E94E2
S11300F0430078941895FF91EF91BF91AF919F9130
S11301008F917F916F915F914F913F912F910F90BC
S10F01100FBE0F901F901895F894FFCFBD
S9030000FC
