S01300006D617374657244756D6D792E7372656379
S11300000C942A000C9434000C9434000C943400A6
S11300100C9434000C9434000C9434000C9434008C
S11300200C9434000C9434000C946B000C94340045
S11300300C9434000C9434000C9434000C9434006C
S11300400C9434000C9434000C9434000C9434005C
S11300500C94340011241FBECFE5D4E0DEBFCDBF25
S11300600E9450000C9477000C94000080EB87BB36
S113007081ED8DB9089585E08FB9C498779BFECF43
S1130080C49A8AE18A95F1F700C084E090E01FB831
S1130090C498779BFECFC49A01970097C1F708953F
S11300A00E943600B89A8A98C09A2FEF80E792E0AF
S11300B0215080409040E1F700C00000C0982FEF2D
S11300C089E698E1215080409040E1F700C00000AB
S11300D00E943B00E9CF1F920F920FB60F9211249A
S11300E0C49A18950F900FBE0F901F901895F8940E
S10500F0FFCF3C
S9030000FC
