S01300006D617374657244756D6D792E7372656379
S11300000C942A000C9434000C9434000C943400A6
S11300100C9434000C9434000C9434000C9434008C
S11300200C9434000C9434000C946C000C94340044
S11300300C9434000C9434000C9434000C9434006C
S11300400C9434000C9434000C9434000C9434005C
S11300500C94340011241FBECFE5D4E0DEBFCDBF25
S11300600E9451000C9478000C94000080EB87BB34
S113007081ED8DB908951FB8C498779BFECFC49ABB
S11300802FB130E0121613065CF480E090E01FB844
S1130090C498779BFECFC49A019682179307BCF34A
S11300A008950E943600B89A8A98C09A2FEF80E784
S11300B092E0215080409040E1F700C00000C098D9
S11300C02FEF89E698E1215080409040E1F700C08D
S11300D000000E943B00E9CF1F920F920FB60F92CF
S11300E01124C49A18950F900FBE0F901F90189565
S10700F0F894FFCFAE
S9030000FC
