S01300006D617374657244756D6D792E7372656379
S11300000C942A000C9434000C9434000C943400A6
S11300100C9434000C9434000C9434000C9434008C
S11300200C9434000C9434000C9460000C94340050
S11300300C9434000C9434000C9434000C9434006C
S11300400C9434000C9434000C9434000C9434005C
S11300500C94340011241FBECFE5D4E0DEBFCDBF25
S11300600E9452000C946C000C94000080EB87BB3F
S113007081ED8DB9089586E88FB9C498779BFECF3A
S1130080C49A8BE291E00197F1F700C000001FB819
S1130090C498779BFECFC49A1FB8C498779BFECFB1
S11300A0C49A08950E9436000E943B002FEF80E717
S11300B092E0215080409040E1F700C00000F4CF6E
S11300C01F920F920FB60F921124C49A18950F9095
S10F00D00FBE0F901F901895F894FFCFFE
S9030000FC
