S0170000746573744170706C69636174696F6E2E73726563D9
S11300000C942A000C9434000C9434000C943400A6
S11300100C9434000C9434000C9434000C9434008C
S11300200C9434000C9434000C9434000C9434007C
S11300300C9434000C9434000C9434000C9434006C
S11300400C9434000C9434000C9434000C9434005C
S11300500C94340011241FBECFE5D4E0DEBFCDBF25
S11300600E9436000C944D000C9400008FEF87BB67
S1130070C09A2FEF80E792E0215080409040E1F752
S113008000C00000C0982FEF88EF95E12150804018
S11100909040E1F700C00000EBCFF894FFCFE2
S9030000FC
