S011000053747972656E6865742E737265634D
S11300000C942A000C9434000C9434000C943400A6
S11300100C9434000C9434000C9434000C9434008C
S11300200C9434000C9434000C9434000C9434007C
S11300300C9434000C9434000C9434000C9434006C
S11300400C9434000C9434000C9434000C9434005C
S11300500C94340011241FBECFE5D4E0DEBFCDBF25
S11300600E9451000C945C000C94000083B78D64D2
S113007083BFBB9A8FB5816A8FBD8EB58D608EBDEF
S113008081B3806381BB08958ABD68BD089580E40F
S113009087BB8DB91DB80895D89AD99A0E94440097
S11300A008950E9447000E9436006FE770E08FEFCA
S10F00B090E00E944C00F9CFF894FFCFC0
S9030000FC
