S01E0000746573744170706C69636174696F6E28534C415645292E7372656306
S11300000C942A000C943C000C943C000C943C008E
S11300100C943C000C943C000C943C000C943C006C
S11300200C943C000C943C000C943C000C943C005C
S11300300C943C000C943C000C943C000C943C004C
S11300400C943C000C943C000C943C000C943C003C
S11300500C943C0011241FBECFE5D4E0DEBFCDBF1D
S113006020E0A0E6B0E001C01D92A436B207E1F79B
S11300700E9452000C9463000C94000080E487BB3F
S11300808DB9089584E08FB9779BFECFE0E6F0E068
S113009084E690E021912FB9779BFECFE817F9070A
S11300A0C9F708950E943E008FE0809360008EE1BE
S11300B0809361008AE08093620084E1809363000E
S10D00C00E944200FDCFF894FFCF28
S9030000FC
